:020000040000FA
:020000002D28A9
:040002000034003492
:0800080005288B130B11B60053
:100010000308B7008519162805191C280518222879
:1000200085012008E4208600851527288501210800
:10003000E42086000515272885012208E420860093
:100040000514272885012308E42086008514C6307E
:100050008100370883003608090083128B178B163E
:1000600007309F00C6308100831601308600D030F3
:1000700085008112811101148114011583128501FB
:100080008601CB20D0200130A2000330A300051B45
:10009000DB20051BA30A2308103A0319A301031947
:1000A000B720851BDB20851B9D20051ADB20051A48
:1000B00097200618DB2006185E204728A41C62281B
:1000C0006D2808002008A5002108A6002208A70026
:1000D0002308A800A414CB2061282008AA00210826
:1000E000AB002208AC002308AD00A914CB20792076
:1000F00061282D082802031C7E28822828082D024A
:10010000103CA703A30022052702031C88288C2883
:1001100027082C02103CA603A2002B082602031C71
:100120009228952826082B02103CA1000800CB201D
:10013000D020B201B301B401080023080319A2289A
:10014000A303B628220821040319B6280F30A30000
:1001500022080319AD28A203B6280F30A2002108F7
:100160000319B428A103B6280F30A1000800230802
:10017000103C031C0800A20A2208103A0319A2012D
:1001800003192208103C031C0800A10A2108103A98
:100190000319CB200800A301A201A101A0010800BE
:1001A000A401A501A601A701A801A901AA01AB010B
:1001B000AC01AD010800FF30B800FF30B900B90B49
:1001C000DF28B80BDD28080082077F340D34B734F0
:1001D0009F34CD34DB34FB340F34FF34CF34EF3471
:0C01E000F9347334BD34F334E33481345B
:02400E00103F61
:00000001FF
