:020000040000FA
:020000002C28AA
:040002000034003492
:080008000B118B13A70003305C
:10001000A8008519152805191B2885182128850190
:10002000200886208600851526288501210886203F
:10003000860005152628850122088620860085145D
:10004000262885012308862086000514C6308100F5
:10005000280883002708090007309F00C630810068
:10006000831601308600F030850081128111011461
:10007000811401158B178B16831285018601A0014F
:10008000A101A201A301051B7D20051BA20A2208D4
:10009000103A0319A20103196420851B7D20851BDA
:1000A0006020051A7D20051A5B2006187D200618A1
:1000B0005A20432808007820A401A501A6010800C1
:1000C00022080318A20308002208103C031C0800A1
:1000D000A30A2308103A0319A30103192308103CAB
:1000E000031C0800A10A2108103A0319782008000F
:1000F000A301A201A101A0010800FF30A900FF3067
:10010000AA00AA0B8128A90B7F28080082077F3448
:100110000D34B7349F34CD34DB34FB340F34FF342B
:10012000CF34EF34F9347334BD34F334E3348134F1
:02400E00103F61
:00000001FF
