:020000040000FA
:020000002D28A9
:040002000034003492
:0800080005288B130B11BA004F
:100010000308BB008519162805191C2885182228F5
:1000200085012008BF208600851527288501210825
:10003000BF2086000515272885012208BF208600DD
:100040008514272885012308BF2086000514DC308D
:1000500081003B0883003A080900831203138B17C1
:100060008B1607309F00DC3081008316013086003C
:10007000D030850081128111011481140115831281
:1000800085018601A620AB207D218721C9211B2265
:100090006D22051BB620051B5A28851BB620851B23
:1000A0006328051AB620051A66280618B620061811
:1000B00069284928A30A2308103A0319A301031940
:1000C00092206C204928D2206C2049288D206C2059
:1000D000492871206C204928A421ED213F22752256
:1000E0000800A41C7628A91C812808002008A50067
:1000F0002108A6002208A7002308A800A414A6200F
:1001000075282008AA002108AB002208AC002308AB
:10011000AD00A914A620D6207528A620AB20AE01DC
:100120006C2008002308103C031C0800A20A2208C7
:10013000103A0319A20103192208103C031C0800FD
:10014000A10A2108103A0319A6200800A301A20160
:10015000A101A0010800A401A501A601A701A80111
:10016000A901AA01AB01AC01AD010800FF30BC0040
:10017000FF30BD00BD0BBA28BC0BB82808008207B1
:100180007F340D34B7349F34CD34DB34FB340F343B
:10019000FF34CF34EF34F9347334BD34F334E33403
:1001A00081340134512163215A210800AE102B08FB
:1001B0002602031CEB28031DE8282C082702031C39
:1001C000EB28031DE8282D082802031CEB28031D3B
:1001D0002D214821EE28AE143F2136213908AF00E9
:1001E000031DF328F6286321AF0BF3281030B0006D
:1001F0003808AF00031DFD2802296321AF0BFD283D
:10020000B00BF8280230B1008030B0003708AF00E2
:10021000031D0B2912296321AF0B0B29B00B0629F3
:10022000B10B04295A21AE1816292C2922082104C1
:10023000031920292108031927291030A0002C298F
:100240001030A2001130A1001130A0002C29103074
:10025000A1001130A0002C2908002808B5002708AB
:10026000B4002608B3002508B20008002808B90029
:100270002708B8002608B7002508B60008002D0892
:10028000B5002C08B4002B08B3002A08B2000800FF
:100290002D08B9002C08B8002B08B7002A08B600B2
:1002A00008002308B5002208B4002108B300200884
:1002B000B20008003508A3003408A2003308A100EA
:1002C0003208A0000800350803196829B5037C2905
:1002D0003408330403197C290F30B500340803199E
:1002E0007329B4037C290F30B400330803197A2929
:1002F000B3037C290F30B3000800003083169B0045
:100300001C141A088312FF3A03198D2008000330C9
:1003100083169B001C141A088312A3000230831654
:100320009B001C141A088312A200013083169B0044
:100330001C141A088312A100003083169B001C14A1
:100340001A088312A00008000330831603139B00D1
:100350008312230883169A007F2202308316031328
:100360009B008312220883169A007F220130831695
:1003700003139B008312210883169A007F2200300A
:10038000831603139B008312200883169A007F2292
:100390000800083083169B001C141A088312A8005A
:1003A000073083169B001C141A088312A70006301E
:1003B00083169B001C141A088312A60005308316AE
:1003C0009B001C141A088312A500043083169B009E
:1003D0001C141A088312A4000800083083160313A3
:1003E0009B008312280883169A007F220730831609
:1003F00003139B008312270883169A007F2206307E
:10040000831603139B008312260883169A007F220B
:100410000530831603139B008312250883169A0068
:100420007F220430831603139B0083122408831653
:100430009A007F2208000D3083169B001C141A08B6
:100440008312AD000C3083169B001C141A08831213
:10045000AC000B3083169B001C141A088312AB00EF
:100460000A3083169B001C141A088312AA00093054
:1004700083169B001C141A088312A90008000D3073
:10048000831603139B0083122D0883169A007F2284
:100490000C30831603139B0083122C0883169A00DA
:1004A0007F220B30831603139B0083122B088316C5
:1004B0009A007F220A30831603139B0083122A08B6
:1004C00083169A007F220930831603139B00831240
:1004D000290883169A007F2208000E3083169B009D
:1004E0001C141A088312AE0008000E308316031382
:1004F0009B0083122E0883169A007F220800831621
:1005000003131C158B1355309D00AA309D009C14BD
:100510009C18882A00009C131C118B17831203134C
:020520000800D1
:02400E00103F61
:00000001FF
