:020000040000FA
:020000002C28AA
:040002000034003492
:080008000B118B13A60003305D
:10001000A7008519152805191B2885182128850191
:1000200020086D20860085152628850121086D2071
:10003000860005152628850122086D208600851476
:100040002628850123086D2086000514C63081000E
:10005000270883002608090007309F00C63081006A
:10006000831601308600F030850081128111011461
:10007000811401158B178B16831285018601A0014F
:10008000A101A201A301051B6420051BA30A2308EB
:10009000103A0319A301851B6420851BA20A2208BC
:1000A000103A0319A201051A6420051AA10A2108B1
:1000B000103A0319A101061864200618A00A2008A6
:1000C000103A0319A0014328FF30A800FF30A9000F
:1000D000A90B6828A80B6628080082077F340D3416
:1000E000B7349F34CD34DB34FB340F34FF34CF349A
:0E00F000EF34F9347334BD34F334E334813427
:02400E00103F61
:00000001FF
