:020000040000FA
:020000002C28AA
:040002000034003492
:080008000B118B13A80003305B
:10001000A9008519152805191B288518212885018F
:1000200020088A20860085152628850121088A2037
:10003000860005152628850122088A208600851459
:100040002628850123088A2086000514C6308100F1
:1000500029088300280809000130A60007309F0006
:10006000C6308100831601308600F0308500811291
:1000700081110114811401158B178B1683128501D0
:100080008601A001A101A201A301051B8120051B7E
:10009000A20A2208103A0319A20103196820851B3D
:1000A0008120851B6220051A8120051A850106180A
:1000B00081200618A00A2008103A0319A00103198C
:1000C0006820452822080318A2031030A200080067
:1000D0002208103C031C0800A30A2308103A031945
:1000E000A30103192308103C031C0800A10A2108DE
:1000F000103A03197C200800A301A201A101A0016C
:100100000800FF30AA00FF30AB00AB0B8528AA0B1C
:100110008328080082077F340D34B7349F34CD34F0
:10012000DB34FB340F34FF34CF34EF34F934733421
:08013000BD34F334E3348134E3
:02400E00103F61
:00000001FF
